:0100000000FF
:0100010001FD
:0100020002FB
:0100030003F9
:0100040004F7
:0100050005F5
:0100060006F3
:0100070007F1
:0100080008EF
:0100090009ED
:01000A0000F5
:01000B0001F3
:01000C0002F1
:01000D0003EF
:01000E0004ED
:01000F0005EB
:0100100006E9
:0100110007E7
:0100120008E5
:0100130009E3
:0100140000EB
:0100150001E9
:0100160002E7
:0100170003E5
:0100180004E3
:0100190005E1
:01001A0006DF
:01001B0007DD
:01001C0008DB
:01001D0009D9
:01001E0000E1
:01001F0001DF
:0100200002DD
:0100210003DB
:0100220004D9
:0100230005D7
:0100240006D5
:0100250007D3
:0100260008D1
:0100270009CF
:0100280000D7
:0100290001D5
:01002A0002D3
:01002B0003D1
:01002C0004CF
:01002D0005CD
:01002E0006CB
:01002F0007C9
:0100300008C7
:0100310009C5
:0100320000CD
:0100330001CB
:0100340002C9
:0100350003C7
:0100360004C5
:0100370005C3
:0100380006C1
:0100390007BF
:01003A0008BD
:01003B0009BB
:01003C0000C3
:01003D0001C1
:01003E0002BF
:01003F0003BD
:0100400004BB
:0100410005B9
:0100420006B7
:0100430007B5
:0100440008B3
:0100450009B1
:0100460000B9
:0100470001B7
:0100480002B5
:0100490003B3
:01004A0004B1
:01004B0005AF
:01004C0006AD
:01004D0007AB
:01004E0008A9
:01004F0009A7
:0100500000AF
:0100510001AD
:0100520002AB
:0100530003A9
:0100540004A7
:0100550005A5
:0100560006A3
:0100570007A1
:01005800089F
:01005900099D
:01005A0000A5
:01005B0001A3
:01005C0002A1
:01005D00039F
:01005E00049D
:01005F00059B
:010060000699
:010061000797
:010062000895
:010063000993
:01006400009B
:010065000199
:010066000297
:010067000395
:010068000493
:010069000591
:01006A00068F
:01006B00078D
:01006C00088B
:01006D000989
:01006E000091
:01006F00018F
:01007000028D
:01007100038B
:010072000489
:010073000587
:010074000685
:010075000783
:010076000881
:01007700097F
:010078000087
:010079000185
:01007A000283
:01007B000381
:01007C00047F
:01007D00057D
:01007E00067B
:01007F000779
:00000001FF
